{
  "contractName": "SelfSovereignIdentitySystem",
  "abi": [
    {
      "constant": true,
      "inputs": [
        {
          "name": "interfaceId",
          "type": "bytes4"
        }
      ],
      "name": "supportsInterface",
      "outputs": [
        {
          "name": "",
          "type": "bool"
        }
      ],
      "payable": false,
      "stateMutability": "view",
      "type": "function"
    },
    {
      "constant": true,
      "inputs": [
        {
          "name": "tokenId",
          "type": "uint256"
        }
      ],
      "name": "getApproved",
      "outputs": [
        {
          "name": "",
          "type": "address"
        }
      ],
      "payable": false,
      "stateMutability": "view",
      "type": "function"
    },
    {
      "constant": false,
      "inputs": [
        {
          "name": "to",
          "type": "address"
        },
        {
          "name": "tokenId",
          "type": "uint256"
        }
      ],
      "name": "approve",
      "outputs": [],
      "payable": false,
      "stateMutability": "nonpayable",
      "type": "function"
    },
    {
      "constant": true,
      "inputs": [],
      "name": "totalSupply",
      "outputs": [
        {
          "name": "",
          "type": "uint256"
        }
      ],
      "payable": false,
      "stateMutability": "view",
      "type": "function"
    },
    {
      "constant": true,
      "inputs": [],
      "name": "validityPeriod",
      "outputs": [
        {
          "name": "",
          "type": "uint256"
        }
      ],
      "payable": false,
      "stateMutability": "view",
      "type": "function"
    },
    {
      "constant": false,
      "inputs": [
        {
          "name": "from",
          "type": "address"
        },
        {
          "name": "to",
          "type": "address"
        },
        {
          "name": "tokenId",
          "type": "uint256"
        }
      ],
      "name": "transferFrom",
      "outputs": [],
      "payable": false,
      "stateMutability": "nonpayable",
      "type": "function"
    },
    {
      "constant": true,
      "inputs": [],
      "name": "dayCount",
      "outputs": [
        {
          "name": "",
          "type": "uint256"
        }
      ],
      "payable": false,
      "stateMutability": "view",
      "type": "function"
    },
    {
      "constant": true,
      "inputs": [
        {
          "name": "owner",
          "type": "address"
        },
        {
          "name": "index",
          "type": "uint256"
        }
      ],
      "name": "tokenOfOwnerByIndex",
      "outputs": [
        {
          "name": "",
          "type": "uint256"
        }
      ],
      "payable": false,
      "stateMutability": "view",
      "type": "function"
    },
    {
      "constant": false,
      "inputs": [
        {
          "name": "from",
          "type": "address"
        },
        {
          "name": "to",
          "type": "address"
        },
        {
          "name": "tokenId",
          "type": "uint256"
        }
      ],
      "name": "safeTransferFrom",
      "outputs": [],
      "payable": false,
      "stateMutability": "nonpayable",
      "type": "function"
    },
    {
      "constant": true,
      "inputs": [
        {
          "name": "identityIndex",
          "type": "uint256"
        },
        {
          "name": "account",
          "type": "address"
        }
      ],
      "name": "isSigner",
      "outputs": [
        {
          "name": "",
          "type": "bool"
        }
      ],
      "payable": false,
      "stateMutability": "view",
      "type": "function"
    },
    {
      "constant": true,
      "inputs": [
        {
          "name": "index",
          "type": "uint256"
        }
      ],
      "name": "tokenByIndex",
      "outputs": [
        {
          "name": "",
          "type": "uint256"
        }
      ],
      "payable": false,
      "stateMutability": "view",
      "type": "function"
    },
    {
      "constant": true,
      "inputs": [
        {
          "name": "tokenId",
          "type": "uint256"
        }
      ],
      "name": "ownerOf",
      "outputs": [
        {
          "name": "",
          "type": "address"
        }
      ],
      "payable": false,
      "stateMutability": "view",
      "type": "function"
    },
    {
      "constant": true,
      "inputs": [
        {
          "name": "owner",
          "type": "address"
        }
      ],
      "name": "balanceOf",
      "outputs": [
        {
          "name": "",
          "type": "uint256"
        }
      ],
      "payable": false,
      "stateMutability": "view",
      "type": "function"
    },
    {
      "constant": false,
      "inputs": [],
      "name": "issueNewIdentity",
      "outputs": [],
      "payable": false,
      "stateMutability": "nonpayable",
      "type": "function"
    },
    {
      "constant": false,
      "inputs": [
        {
          "name": "to",
          "type": "address"
        },
        {
          "name": "approved",
          "type": "bool"
        }
      ],
      "name": "setApprovalForAll",
      "outputs": [],
      "payable": false,
      "stateMutability": "nonpayable",
      "type": "function"
    },
    {
      "constant": false,
      "inputs": [
        {
          "name": "from",
          "type": "address"
        },
        {
          "name": "to",
          "type": "address"
        },
        {
          "name": "tokenId",
          "type": "uint256"
        },
        {
          "name": "_data",
          "type": "bytes"
        }
      ],
      "name": "safeTransferFrom",
      "outputs": [],
      "payable": false,
      "stateMutability": "nonpayable",
      "type": "function"
    },
    {
      "constant": true,
      "inputs": [
        {
          "name": "identityIndex",
          "type": "uint256"
        }
      ],
      "name": "signerByIndex",
      "outputs": [
        {
          "name": "",
          "type": "address"
        }
      ],
      "payable": false,
      "stateMutability": "view",
      "type": "function"
    },
    {
      "constant": true,
      "inputs": [
        {
          "name": "owner",
          "type": "address"
        },
        {
          "name": "operator",
          "type": "address"
        }
      ],
      "name": "isApprovedForAll",
      "outputs": [
        {
          "name": "",
          "type": "bool"
        }
      ],
      "payable": false,
      "stateMutability": "view",
      "type": "function"
    },
    {
      "constant": false,
      "inputs": [
        {
          "name": "identityIndex",
          "type": "uint256"
        }
      ],
      "name": "recoverIdentity",
      "outputs": [],
      "payable": false,
      "stateMutability": "nonpayable",
      "type": "function"
    },
    {
      "constant": true,
      "inputs": [
        {
          "name": "identityIndex",
          "type": "uint256"
        }
      ],
      "name": "isValid",
      "outputs": [
        {
          "name": "",
          "type": "bool"
        }
      ],
      "payable": false,
      "stateMutability": "view",
      "type": "function"
    },
    {
      "inputs": [],
      "payable": true,
      "stateMutability": "payable",
      "type": "constructor"
    },
    {
      "anonymous": false,
      "inputs": [
        {
          "indexed": false,
          "name": "identityIndex",
          "type": "uint256"
        }
      ],
      "name": "NewCitizen",
      "type": "event"
    },
    {
      "anonymous": false,
      "inputs": [
        {
          "indexed": false,
          "name": "identityIndex",
          "type": "uint256"
        }
      ],
      "name": "ExpiredCitizen",
      "type": "event"
    },
    {
      "anonymous": false,
      "inputs": [
        {
          "indexed": false,
          "name": "identityIndex",
          "type": "uint256"
        }
      ],
      "name": "NewValidator",
      "type": "event"
    },
    {
      "anonymous": false,
      "inputs": [
        {
          "indexed": false,
          "name": "identityIndex",
          "type": "uint256"
        }
      ],
      "name": "ExpiredValidator",
      "type": "event"
    },
    {
      "anonymous": false,
      "inputs": [
        {
          "indexed": false,
          "name": "description",
          "type": "string"
        }
      ],
      "name": "LogInfo",
      "type": "event"
    },
    {
      "anonymous": false,
      "inputs": [
        {
          "indexed": false,
          "name": "description",
          "type": "string"
        }
      ],
      "name": "LogWarn",
      "type": "event"
    },
    {
      "anonymous": false,
      "inputs": [
        {
          "indexed": false,
          "name": "description",
          "type": "string"
        }
      ],
      "name": "LogError",
      "type": "event"
    },
    {
      "anonymous": false,
      "inputs": [
        {
          "indexed": true,
          "name": "from",
          "type": "address"
        },
        {
          "indexed": true,
          "name": "to",
          "type": "address"
        },
        {
          "indexed": true,
          "name": "tokenId",
          "type": "uint256"
        }
      ],
      "name": "Transfer",
      "type": "event"
    },
    {
      "anonymous": false,
      "inputs": [
        {
          "indexed": true,
          "name": "owner",
          "type": "address"
        },
        {
          "indexed": true,
          "name": "approved",
          "type": "address"
        },
        {
          "indexed": true,
          "name": "tokenId",
          "type": "uint256"
        }
      ],
      "name": "Approval",
      "type": "event"
    },
    {
      "anonymous": false,
      "inputs": [
        {
          "indexed": true,
          "name": "owner",
          "type": "address"
        },
        {
          "indexed": true,
          "name": "operator",
          "type": "address"
        },
        {
          "indexed": false,
          "name": "approved",
          "type": "bool"
        }
      ],
      "name": "ApprovalForAll",
      "type": "event"
    },
    {
      "constant": true,
      "inputs": [
        {
          "name": "_identityIndex",
          "type": "uint256"
        }
      ],
      "name": "isCitizen",
      "outputs": [
        {
          "name": "",
          "type": "bool"
        }
      ],
      "payable": false,
      "stateMutability": "view",
      "type": "function"
    },
    {
      "constant": true,
      "inputs": [
        {
          "name": "_identityIndex",
          "type": "uint256"
        }
      ],
      "name": "isValidator",
      "outputs": [
        {
          "name": "",
          "type": "bool"
        }
      ],
      "payable": false,
      "stateMutability": "view",
      "type": "function"
    },
    {
      "constant": false,
      "inputs": [
        {
          "name": "_validatorIndex",
          "type": "uint256"
        },
        {
          "name": "_identityIndex",
          "type": "uint256"
        }
      ],
      "name": "validateCitizen",
      "outputs": [],
      "payable": false,
      "stateMutability": "nonpayable",
      "type": "function"
    },
    {
      "constant": false,
      "inputs": [
        {
          "name": "identityIndex",
          "type": "uint256"
        }
      ],
      "name": "removeCitizen",
      "outputs": [],
      "payable": false,
      "stateMutability": "nonpayable",
      "type": "function"
    },
    {
      "constant": false,
      "inputs": [
        {
          "name": "myid",
          "type": "bytes32"
        },
        {
          "name": "result",
          "type": "string"
        }
      ],
      "name": "__callback",
      "outputs": [],
      "payable": false,
      "stateMutability": "nonpayable",
      "type": "function"
    },
    {
      "constant": false,
      "inputs": [
        {
          "name": "_queryId",
          "type": "bytes32"
        },
        {
          "name": "_result",
          "type": "string"
        },
        {
          "name": "_proof",
          "type": "bytes"
        }
      ],
      "name": "__callback",
      "outputs": [],
      "payable": false,
      "stateMutability": "nonpayable",
      "type": "function"
    },
    {
      "constant": false,
      "inputs": [],
      "name": "restart",
      "outputs": [],
      "payable": true,
      "stateMutability": "payable",
      "type": "function"
    }
  ],
  "bytecode": "0x608060405260016009556105b5600a5562030d40601355620151806014556007601555600a601660006101000a81548160ff021916908360ff160217905550605a601b556000620000826301ffc9a77c01000000000000000000000000000000000000000000000000000000000262000280640100000000026401000000009004565b620000bf6380ac58cd7c01000000000000000000000000000000000000000000000000000000000262000280640100000000026401000000009004565b620000fc63780e9d637c01000000000000000000000000000000000000000000000000000000000262000280640100000000026401000000009004565b6200014e6040805190810160405280600681526020017f72616e646f6d00000000000000000000000000000000000000000000000000008152506013546200033e640100000000026401000000009004565b34111515620001eb576040517f08c379a000000000000000000000000000000000000000000000000000000000815260040180806020018281038252602e8152602001807f416d6f756e74206f6620455448206e6f7420737566666963656e7420746f207381526020017f746172742074686520636c6f636b00000000000000000000000000000000000081525060400191505060405180910390fd5b6200022860307f0100000000000000000000000000000000000000000000000000000000000000026200074c640100000000026401000000009004565b62000249601454602060135462000b04640100000000026401000000009004565b9050600160098190555080601281600019169055506000601d60006101000a81548160ff0219169083151502179055505062002c54565b63ffffffff7c010000000000000000000000000000000000000000000000000000000002817bffffffffffffffffffffffffffffffffffffffffffffffffffffffff191614151515620002d257600080fd5b6001600080837bffffffffffffffffffffffffffffffffffffffffffffffffffffffff19167bffffffffffffffffffffffffffffffffffffffffffffffffffffffff1916815260200190815260200160002060006101000a81548160ff02191690831515021790555050565b600080600d60009054906101000a900473ffffffffffffffffffffffffffffffffffffffff1673ffffffffffffffffffffffffffffffffffffffff161480620003c257506000620003c0600d60009054906101000a900473ffffffffffffffffffffffffffffffffffffffff1662001194640100000000026401000000009004565b145b15620003e557620003e360006200119f640100000000026401000000009004565b505b600d60009054906101000a900473ffffffffffffffffffffffffffffffffffffffff1673ffffffffffffffffffffffffffffffffffffffff166338cc48316040518163ffffffff167c0100000000000000000000000000000000000000000000000000000000028152600401602060405180830381600087803b1580156200046c57600080fd5b505af115801562000481573d6000803e3d6000fd5b505050506040513d60208110156200049857600080fd5b810190808051906020019092919050505073ffffffffffffffffffffffffffffffffffffffff16600e60009054906101000a900473ffffffffffffffffffffffffffffffffffffffff1673ffffffffffffffffffffffffffffffffffffffff161415156200060557600d60009054906101000a900473ffffffffffffffffffffffffffffffffffffffff1673ffffffffffffffffffffffffffffffffffffffff166338cc48316040518163ffffffff167c0100000000000000000000000000000000000000000000000000000000028152600401602060405180830381600087803b1580156200058757600080fd5b505af11580156200059c573d6000803e3d6000fd5b505050506040513d6020811015620005b357600080fd5b8101908080519060200190929190505050600e60006101000a81548173ffffffffffffffffffffffffffffffffffffffff021916908373ffffffffffffffffffffffffffffffffffffffff1602179055505b600e60009054906101000a900473ffffffffffffffffffffffffffffffffffffffff1673ffffffffffffffffffffffffffffffffffffffff16632ef3accc84846040518363ffffffff167c01000000000000000000000000000000000000000000000000000000000281526004018080602001838152602001828103825284818151815260200191508051906020019080838360005b83811015620006b85780820151818401526020810190506200069b565b50505050905090810190601f168015620006e65780820380516001836020036101000a031916815260200191505b509350505050602060405180830381600087803b1580156200070757600080fd5b505af11580156200071c573d6000803e3d6000fd5b505050506040513d60208110156200073357600080fd5b8101908080519060200190929190505050905092915050565b6000600d60009054906101000a900473ffffffffffffffffffffffffffffffffffffffff1673ffffffffffffffffffffffffffffffffffffffff161480620007cf57506000620007cd600d60009054906101000a900473ffffffffffffffffffffffffffffffffffffffff1662001194640100000000026401000000009004565b145b15620007f257620007f060006200119f640100000000026401000000009004565b505b600d60009054906101000a900473ffffffffffffffffffffffffffffffffffffffff1673ffffffffffffffffffffffffffffffffffffffff166338cc48316040518163ffffffff167c0100000000000000000000000000000000000000000000000000000000028152600401602060405180830381600087803b1580156200087957600080fd5b505af11580156200088e573d6000803e3d6000fd5b505050506040513d6020811015620008a557600080fd5b810190808051906020019092919050505073ffffffffffffffffffffffffffffffffffffffff16600e60009054906101000a900473ffffffffffffffffffffffffffffffffffffffff1673ffffffffffffffffffffffffffffffffffffffff1614151562000a1257600d60009054906101000a900473ffffffffffffffffffffffffffffffffffffffff1673ffffffffffffffffffffffffffffffffffffffff166338cc48316040518163ffffffff167c0100000000000000000000000000000000000000000000000000000000028152600401602060405180830381600087803b1580156200099457600080fd5b505af1158015620009a9573d6000803e3d6000fd5b505050506040513d6020811015620009c057600080fd5b8101908080519060200190929190505050600e60006101000a81548173ffffffffffffffffffffffffffffffffffffffff021916908373ffffffffffffffffffffffffffffffffffffffff1602179055505b600e60009054906101000a900473ffffffffffffffffffffffffffffffffffffffff1673ffffffffffffffffffffffffffffffffffffffff1663688dcfd7826040518263ffffffff167c010000000000000000000000000000000000000000000000000000000002815260040180827effffffffffffffffffffffffffffffffffffffffffffffffffffffffffffff19167effffffffffffffffffffffffffffffffffffffffffffffffffffffffffffff19168152602001915050600060405180830381600087803b15801562000ae857600080fd5b505af115801562000afd573d6000803e3d6000fd5b5050505050565b60006060806060600060608062000b1a62002b62565b6000606060008c11801562000b30575060208c11155b151562000b3c57600080fd5b600a8d029c5060016040519080825280601f01601f19166020018201604052801562000b775781602001602082028038833980820191505090505b5098508b7f01000000000000000000000000000000000000000000000000000000000000000289600081518110151562000bad57fe5b9060200101907effffffffffffffffffffffffffffffffffffffffffffffffffffffffffffff1916908160001a90535060206040519080825280601f01601f19166020018201604052801562000c125781602001602082028038833980820191505090505b50975060206040519080825280601f01601f19166020018201604052801562000c4a5781602001602082028038833980820191505090505b50965062000c66620011c1640100000000026401000000009004565b95506020885242411860014303401860208901526020875285602088015260206040519080825280601f01601f19166020018201604052801562000cb95781602001602082028038833980820191505090505b5094508c602086015260086040519080825280601f01601f19166020018201604052801562000cf75781602001602082028038833980820191505090505b50935062000d1b856018600887600062001551640100000000026401000000009004565b506080604051908101604052808981526020018a815260200188815260200186815250925062000d916040805190810160405280600681526020017f72616e646f6d0000000000000000000000000000000000000000000000000000815250848d620015b4640100000000026401000000009004565b915060086040519080825280601f01601f19166020018201604052801562000dc85781602001602082028038833980820191505090505b50905060208401517f0100000000000000000000000000000000000000000000000000000000000000810460278301537e01000000000000000000000000000000000000000000000000000000000000810460268301537d010000000000000000000000000000000000000000000000000000000000810460258301537c0100000000000000000000000000000000000000000000000000000000810460248301537b01000000000000000000000000000000000000000000000000000000810460238301537a01000000000000000000000000000000000000000000000000000081046022830153790100000000000000000000000000000000000000000000000000810460218301537801000000000000000000000000000000000000000000000000810460208301535062001181828285600160048110151562000f0b57fe5b6020020151600287600060048110151562000f2257fe5b60200201516040518082805190602001908083835b60208310151562000f5e578051825260208201915060208101905060208303925062000f37565b6001836020036101000a0380198251168184511680821785525050505050509050019150506020604051808303816000865af115801562000fa3573d6000803e3d6000fd5b5050506040513d602081101562000fb957600080fd5b810190808051906020019092919050505087600260048110151562000fda57fe5b60200201516040516020018085805190602001908083835b60208310151562001019578051825260208201915060208101905060208303925062000ff2565b6001836020036101000a03801982511681845116808217855250505050505090500184805190602001908083835b6020831015156200106e578051825260208201915060208101905060208303925062001047565b6001836020036101000a038019825116818451168082178552505050505050905001836000191660001916815260200182805190602001908083835b602083101515620010d15780518252602082019150602081019050602083039250620010aa565b6001836020036101000a0380198251168184511680821785525050505050509050019450505050506040516020818303038152906040526040518082805190602001908083835b6020831015156200113f578051825260208201915060208101905060208303925062001118565b6001836020036101000a0380198251168184511680821785525050505050509050019150506040518091039020620019a6640100000000026401000000009004565b8199505050505050505050509392505050565b6000813b9050919050565b6000620011ba620019ce640100000000026401000000009004565b9050919050565b600080600d60009054906101000a900473ffffffffffffffffffffffffffffffffffffffff1673ffffffffffffffffffffffffffffffffffffffff161480620012455750600062001243600d60009054906101000a900473ffffffffffffffffffffffffffffffffffffffff1662001194640100000000026401000000009004565b145b1562001268576200126660006200119f640100000000026401000000009004565b505b600d60009054906101000a900473ffffffffffffffffffffffffffffffffffffffff1673ffffffffffffffffffffffffffffffffffffffff166338cc48316040518163ffffffff167c0100000000000000000000000000000000000000000000000000000000028152600401602060405180830381600087803b158015620012ef57600080fd5b505af115801562001304573d6000803e3d6000fd5b505050506040513d60208110156200131b57600080fd5b810190808051906020019092919050505073ffffffffffffffffffffffffffffffffffffffff16600e60009054906101000a900473ffffffffffffffffffffffffffffffffffffffff1673ffffffffffffffffffffffffffffffffffffffff161415156200148857600d60009054906101000a900473ffffffffffffffffffffffffffffffffffffffff1673ffffffffffffffffffffffffffffffffffffffff166338cc48316040518163ffffffff167c0100000000000000000000000000000000000000000000000000000000028152600401602060405180830381600087803b1580156200140a57600080fd5b505af11580156200141f573d6000803e3d6000fd5b505050506040513d60208110156200143657600080fd5b8101908080519060200190929190505050600e60006101000a81548173ffffffffffffffffffffffffffffffffffffffff021916908373ffffffffffffffffffffffffffffffffffffffff1602179055505b600e60009054906101000a900473ffffffffffffffffffffffffffffffffffffffff1673ffffffffffffffffffffffffffffffffffffffff1663abaa5f3e6040518163ffffffff167c0100000000000000000000000000000000000000000000000000000000028152600401602060405180830381600087803b1580156200150f57600080fd5b505af115801562001524573d6000803e3d6000fd5b505050506040513d60208110156200153b57600080fd5b8101908080519060200190929190505050905090565b606060008060008487019250828651101515156200156e57600080fd5b8760200191508460200190505b868860200101821015620015a557818901518082880152506020820191506020810190506200157b565b85935050505095945050505050565b600060606000600d60009054906101000a900473ffffffffffffffffffffffffffffffffffffffff1673ffffffffffffffffffffffffffffffffffffffff1614806200163b5750600062001639600d60009054906101000a900473ffffffffffffffffffffffffffffffffffffffff1662001194640100000000026401000000009004565b145b156200165e576200165c60006200119f640100000000026401000000009004565b505b600d60009054906101000a900473ffffffffffffffffffffffffffffffffffffffff1673ffffffffffffffffffffffffffffffffffffffff166338cc48316040518163ffffffff167c0100000000000000000000000000000000000000000000000000000000028152600401602060405180830381600087803b158015620016e557600080fd5b505af1158015620016fa573d6000803e3d6000fd5b505050506040513d60208110156200171157600080fd5b810190808051906020019092919050505073ffffffffffffffffffffffffffffffffffffffff16600e60009054906101000a900473ffffffffffffffffffffffffffffffffffffffff1673ffffffffffffffffffffffffffffffffffffffff161415156200187e57600d60009054906101000a900473ffffffffffffffffffffffffffffffffffffffff1673ffffffffffffffffffffffffffffffffffffffff166338cc48316040518163ffffffff167c0100000000000000000000000000000000000000000000000000000000028152600401602060405180830381600087803b1580156200180057600080fd5b505af115801562001815573d6000803e3d6000fd5b505050506040513d60208110156200182c57600080fd5b8101908080519060200190929190505050600e60006101000a81548173ffffffffffffffffffffffffffffffffffffffff021916908373ffffffffffffffffffffffffffffffffffffffff1602179055505b6004604051908082528060200260200182016040528015620018b557816020015b60608152602001906001900390816200189f5790505b509050836000600481101515620018c857fe5b6020020151816000815181101515620018dd57fe5b90602001906020020181905250836001600481101515620018fa57fe5b60200201518160018151811015156200190f57fe5b906020019060200201819052508360026004811015156200192c57fe5b60200201518160028151811015156200194157fe5b906020019060200201819052508360036004811015156200195e57fe5b60200201518160038151811015156200197357fe5b906020019060200201819052506200199c85828562001f2d640100000000026401000000009004565b9150509392505050565b8060106000846000191660001916815260200190815260200160002081600019169055505050565b600080620019ff731d3b2638a7cc9f2cb3d298a3da7a90b67e5506ed62001194640100000000026401000000009004565b111562001ab457731d3b2638a7cc9f2cb3d298a3da7a90b67e5506ed600d60006101000a81548173ffffffffffffffffffffffffffffffffffffffff021916908373ffffffffffffffffffffffffffffffffffffffff16021790555062001aaa6040805190810160405280600b81526020017f6574685f6d61696e6e65740000000000000000000000000000000000000000008152506200253c640100000000026401000000009004565b6001905062001f2a565b600062001ae473c03a2615d5efaf5f49f60b7bb6583eaec212fdf162001194640100000000026401000000009004565b111562001b995773c03a2615d5efaf5f49f60b7bb6583eaec212fdf1600d60006101000a81548173ffffffffffffffffffffffffffffffffffffffff021916908373ffffffffffffffffffffffffffffffffffffffff16021790555062001b8f6040805190810160405280600c81526020017f6574685f726f707374656e3300000000000000000000000000000000000000008152506200253c640100000000026401000000009004565b6001905062001f2a565b600062001bc973b7a07bcf2ba2f2703b24c0691b5278999c59ac7e62001194640100000000026401000000009004565b111562001c7e5773b7a07bcf2ba2f2703b24c0691b5278999c59ac7e600d60006101000a81548173ffffffffffffffffffffffffffffffffffffffff021916908373ffffffffffffffffffffffffffffffffffffffff16021790555062001c746040805190810160405280600981526020017f6574685f6b6f76616e00000000000000000000000000000000000000000000008152506200253c640100000000026401000000009004565b6001905062001f2a565b600062001cae73146500cfd35b22e4a392fe0adc06de1a1368ed4862001194640100000000026401000000009004565b111562001d635773146500cfd35b22e4a392fe0adc06de1a1368ed48600d60006101000a81548173ffffffffffffffffffffffffffffffffffffffff021916908373ffffffffffffffffffffffffffffffffffffffff16021790555062001d596040805190810160405280600b81526020017f6574685f72696e6b6562790000000000000000000000000000000000000000008152506200253c640100000000026401000000009004565b6001905062001f2a565b600062001d93736f485c8bf6fc43ea212e93bbf8ce046c7f1cb47562001194640100000000026401000000009004565b111562001df957736f485c8bf6fc43ea212e93bbf8ce046c7f1cb475600d60006101000a81548173ffffffffffffffffffffffffffffffffffffffff021916908373ffffffffffffffffffffffffffffffffffffffff1602179055506001905062001f2a565b600062001e297320e12a1f859b3feae5fb2a0a32c18f5a65555bbf62001194640100000000026401000000009004565b111562001e8f577320e12a1f859b3feae5fb2a0a32c18f5a65555bbf600d60006101000a81548173ffffffffffffffffffffffffffffffffffffffff021916908373ffffffffffffffffffffffffffffffffffffffff1602179055506001905062001f2a565b600062001ebf7351efaf4c8b3c9afbd5ab9f4bbc82784ab6ef8faa62001194640100000000026401000000009004565b111562001f25577351efaf4c8b3c9afbd5ab9f4bbc82784ab6ef8faa600d60006101000a81548173ffffffffffffffffffffffffffffffffffffffff021916908373ffffffffffffffffffffffffffffffffffffffff1602179055506001905062001f2a565b600090505b90565b60008060606000600d60009054906101000a900473ffffffffffffffffffffffffffffffffffffffff1673ffffffffffffffffffffffffffffffffffffffff16148062001fb55750600062001fb3600d60009054906101000a900473ffffffffffffffffffffffffffffffffffffffff1662001194640100000000026401000000009004565b145b1562001fd85762001fd660006200119f640100000000026401000000009004565b505b600d60009054906101000a900473ffffffffffffffffffffffffffffffffffffffff1673ffffffffffffffffffffffffffffffffffffffff166338cc48316040518163ffffffff167c0100000000000000000000000000000000000000000000000000000000028152600401602060405180830381600087803b1580156200205f57600080fd5b505af115801562002074573d6000803e3d6000fd5b505050506040513d60208110156200208b57600080fd5b810190808051906020019092919050505073ffffffffffffffffffffffffffffffffffffffff16600e60009054906101000a900473ffffffffffffffffffffffffffffffffffffffff1673ffffffffffffffffffffffffffffffffffffffff16141515620021f857600d60009054906101000a900473ffffffffffffffffffffffffffffffffffffffff1673ffffffffffffffffffffffffffffffffffffffff166338cc48316040518163ffffffff167c0100000000000000000000000000000000000000000000000000000000028152600401602060405180830381600087803b1580156200217a57600080fd5b505af11580156200218f573d6000803e3d6000fd5b505050506040513d6020811015620021a657600080fd5b8101908080519060200190929190505050600e60006101000a81548173ffffffffffffffffffffffffffffffffffffffff021916908373ffffffffffffffffffffffffffffffffffffffff1602179055505b600e60009054906101000a900473ffffffffffffffffffffffffffffffffffffffff1673ffffffffffffffffffffffffffffffffffffffff16632ef3accc87866040518363ffffffff167c01000000000000000000000000000000000000000000000000000000000281526004018080602001838152602001828103825284818151815260200191508051906020019080838360005b83811015620022ab5780820151818401526020810190506200228e565b50505050905090810190601f168015620022d95780820380516001836020036101000a031916815260200191505b509350505050602060405180830381600087803b158015620022fa57600080fd5b505af11580156200230f573d6000803e3d6000fd5b505050506040513d60208110156200232657600080fd5b81019080805190602001909291905050509150833a02670de0b6b3a7640000018211156200235b576000600102925062002533565b620023758562002558640100000000026401000000009004565b9050600e60009054906101000a900473ffffffffffffffffffffffffffffffffffffffff1673ffffffffffffffffffffffffffffffffffffffff1663c55c1cb68360008985896040518663ffffffff167c0100000000000000000000000000000000000000000000000000000000028152600401808581526020018060200180602001848152602001838103835286818151815260200191508051906020019080838360005b83811015620024385780820151818401526020810190506200241b565b50505050905090810190601f168015620024665780820380516001836020036101000a031916815260200191505b50838103825285818151815260200191508051906020019080838360005b83811015620024a157808201518184015260208101905062002484565b50505050905090810190601f168015620024cf5780820380516001836020036101000a031916815260200191505b5096505050505050506020604051808303818588803b158015620024f257600080fd5b505af115801562002507573d6000803e3d6000fd5b50505050506040513d60208110156200251f57600080fd5b810190808051906020019092919050505092505b50509392505050565b80600f90805190602001906200255492919062002b8b565b5050565b60606200256462002c12565b60006200257f62002645640100000000026401000000009004565b620025a18261040062002651640100000000026200604b176401000000009004565b620025c082620026a4640100000000026200609b176401000000009004565b600090505b835181101562002618576200260a8482815181101515620025e257fe5b9060200190602002015183620026c364010000000002620060a9179091906401000000009004565b8080600101915050620025c5565b62002637826200270964010000000002620060ce176401000000009004565b816000015192505050919050565b60405180590338823950565b600081905060006020828115156200266557fe5b0614151562002684576020818115156200267b57fe5b06602003810190505b808360200181815250506040518084526000815281810160405250505050565b620026c081600462002728640100000000026401000000009004565b50565b620026e182600283516200275c640100000000026401000000009004565b6200270481836200294e6401000000000262006259179091906401000000009004565b505050565b6200272581600762002728640100000000026401000000009004565b50565b62002758601f60058360ff169060020a02178362002a216401000000000262006305179091906401000000009004565b5050565b6017811115156200279f57620027998160058460ff169060020a0260ff16178462002a216401000000000262006305179091906401000000009004565b62002949565b60ff811115156200280757620027da601860058460ff169060020a02178462002a216401000000000262006305179091906401000000009004565b620028008160018562002a73640100000000026200634517909291906401000000009004565b5062002948565b61ffff81111515620028705762002843601960058460ff169060020a02178462002a216401000000000262006305179091906401000000009004565b620028698160028562002a73640100000000026200634517909291906401000000009004565b5062002947565b63ffffffff81111515620028db57620028ae601a60058460ff169060020a02178462002a216401000000000262006305179091906401000000009004565b620028d48160048562002a73640100000000026200634517909291906401000000009004565b5062002946565b67ffffffffffffffff8111151562002945576200291d601b60058460ff169060020a02178462002a216401000000000262006305179091906401000000009004565b620029438160088562002a73640100000000026200634517909291906401000000009004565b505b5b5b5b5b505050565b6200295862002c12565b60008060008086602001518760000151518751011115620029b157620029b08760026200299a8a602001518a5162002aff640100000000026401000000009004565b0262002b1d640100000000026401000000009004565b5b8551915086518051602081830101955087518101825260208801945050505b602082101515620029f75782518452602084019350602083019250602082039150620029d0565b6001826020036101000a039050801983511681855116818117865250508694505050505092915050565b8160200151600183600001515101111562002a595762002a5882600284602001510262002b1d640100000000026401000000009004565b5b815180516020818301018381536001820183525050505050565b62002a7d62002c12565b600084602001518560000151518401111562002ad05762002acf85600262002ab988602001518762002aff640100000000026401000000009004565b0262002b1d640100000000026401000000009004565b5b6001836101000a0390508451805184818301018684198251161781528582018352505050849150509392505050565b60008183111562002b135782905062002b17565b8190505b92915050565b60608260000151905062002b41838362002651640100000000026401000000009004565b62002b5c83826200294e640100000000026401000000009004565b50505050565b6080604051908101604052806004905b606081526020019060019003908162002b725790505090565b828054600181600116156101000203166002900490600052602060002090601f016020900481019282601f1062002bce57805160ff191683800117855562002bff565b8280016001018555821562002bff579182015b8281111562002bfe57825182559160200191906001019062002be1565b5b50905062002c0e919062002c2c565b5090565b604080519081016040528060608152602001600081525090565b62002c5191905b8082111562002c4d57600081600090555060010162002c33565b5090565b90565b61652a8062002c646000396000f30060806040526004361061015f576000357c0100000000000000000000000000000000000000000000000000000000900463ffffffff16806301ffc9a714610164578063081812fc146101c8578063095ea7b31461023557806318160ddd146102825780631e6c3850146102ad5780631ef3755d146102d857806323b872dd146102e25780632649263a1461034f578063266e2a561461039457806327dc297e146103bf5780632f745c591461043657806338bbfa501461049757806342842e0e1461055457806348bcbd2d146105c15780634f6ccce7146106265780636352211e1461066757806370a08231146106d4578063865175c81461072b57806399ecc46114610742578063a22cb46514610787578063b88d4fde146107d6578063be847dab14610889578063ce35d412146108c0578063e985e9c51461092d578063ea68c0bf146109a8578063eddc7984146109d5578063f577a50014610a02575b600080fd5b34801561017057600080fd5b506101ae60048036038101908080357bffffffffffffffffffffffffffffffffffffffffffffffffffffffff19169060200190929190505050610a47565b604051808215151515815260200191505060405180910390f35b3480156101d457600080fd5b506101f360048036038101908080359060200190929190505050610aae565b604051808273ffffffffffffffffffffffffffffffffffffffff1673ffffffffffffffffffffffffffffffffffffffff16815260200191505060405180910390f35b34801561024157600080fd5b50610280600480360381019080803573ffffffffffffffffffffffffffffffffffffffff16906020019092919080359060200190929190505050610aff565b005b34801561028e57600080fd5b50610297610c44565b6040518082815260200191505060405180910390f35b3480156102b957600080fd5b506102c2610c51565b6040518082815260200191505060405180910390f35b6102e0610c57565b005b3480156102ee57600080fd5b5061034d600480360381019080803573ffffffffffffffffffffffffffffffffffffffff169060200190929190803573ffffffffffffffffffffffffffffffffffffffff16906020019092919080359060200190929190505050610d96565b005b34801561035b57600080fd5b5061037a60048036038101908080359060200190929190505050610e65565b604051808215151515815260200191505060405180910390f35b3480156103a057600080fd5b506103a9610e8a565b6040518082815260200191505060405180910390f35b3480156103cb57600080fd5b506104346004803603810190808035600019169060200190929190803590602001908201803590602001908080601f0160208091040260200160405190810160405280939291908181526020018383808284378201915050505050509192919290505050610e90565b005b34801561044257600080fd5b50610481600480360381019080803573ffffffffffffffffffffffffffffffffffffffff16906020019092919080359060200190929190505050610ed3565b6040518082815260200191505060405180910390f35b3480156104a357600080fd5b506105526004803603810190808035600019169060200190929190803590602001908201803590602001908080601f0160208091040260200160405190810160405280939291908181526020018383808284378201915050505050509192919290803590602001908201803590602001908080601f0160208091040260200160405190810160405280939291908181526020018383808284378201915050505050509192919290505050610f4a565b005b34801561056057600080fd5b506105bf600480360381019080803573ffffffffffffffffffffffffffffffffffffffff169060200190929190803573ffffffffffffffffffffffffffffffffffffffff16906020019092919080359060200190929190505050611379565b005b3480156105cd57600080fd5b5061060c60048036038101908080359060200190929190803573ffffffffffffffffffffffffffffffffffffffff16906020019092919050505061139a565b604051808215151515815260200191505060405180910390f35b34801561063257600080fd5b506106516004803603810190808035906020019092919050505061147f565b6040518082815260200191505060405180910390f35b34801561067357600080fd5b50610692600480360381019080803590602001909291905050506114b7565b604051808273ffffffffffffffffffffffffffffffffffffffff1673ffffffffffffffffffffffffffffffffffffffff16815260200191505060405180910390f35b3480156106e057600080fd5b50610715600480360381019080803573ffffffffffffffffffffffffffffffffffffffff169060200190929190505050611535565b6040518082815260200191505060405180910390f35b34801561073757600080fd5b506107406115b9565b005b34801561074e57600080fd5b5061076d6004803603810190808035906020019092919050505061173f565b604051808215151515815260200191505060405180910390f35b34801561079357600080fd5b506107d4600480360381019080803573ffffffffffffffffffffffffffffffffffffffff16906020019092919080351515906020019092919050505061175e565b005b3480156107e257600080fd5b50610887600480360381019080803573ffffffffffffffffffffffffffffffffffffffff169060200190929190803573ffffffffffffffffffffffffffffffffffffffff16906020019092919080359060200190929190803590602001908201803590602001908080601f016020809104026020016040519081016040528093929190818152602001838380828437820191505050505050919291929050505061189a565b005b34801561089557600080fd5b506108be60048036038101908080359060200190929190803590602001909291905050506118c2565b005b3480156108cc57600080fd5b506108eb60048036038101908080359060200190929190505050611a22565b604051808273ffffffffffffffffffffffffffffffffffffffff1673ffffffffffffffffffffffffffffffffffffffff16815260200191505060405180910390f35b34801561093957600080fd5b5061098e600480360381019080803573ffffffffffffffffffffffffffffffffffffffff169060200190929190803573ffffffffffffffffffffffffffffffffffffffff169060200190929190505050611a6c565b604051808215151515815260200191505060405180910390f35b3480156109b457600080fd5b506109d360048036038101908080359060200190929190505050611b00565b005b3480156109e157600080fd5b50610a0060048036038101908080359060200190929190505050611bf9565b005b348015610a0e57600080fd5b50610a2d60048036038101908080359060200190929190505050611c2f565b604051808215151515815260200191505060405180910390f35b6000806000837bffffffffffffffffffffffffffffffffffffffffffffffffffffffff19167bffffffffffffffffffffffffffffffffffffffffffffffffffffffff1916815260200190815260200160002060009054906101000a900460ff169050919050565b6000610ab982611c8c565b1515610ac457600080fd5b6002600083815260200190815260200160002060009054906101000a900473ffffffffffffffffffffffffffffffffffffffff169050919050565b6000610b0a826114b7565b90508073ffffffffffffffffffffffffffffffffffffffff168373ffffffffffffffffffffffffffffffffffffffff1614151515610b4757600080fd5b8073ffffffffffffffffffffffffffffffffffffffff163373ffffffffffffffffffffffffffffffffffffffff161480610b875750610b868133611a6c565b5b1515610b9257600080fd5b826002600084815260200190815260200160002060006101000a81548173ffffffffffffffffffffffffffffffffffffffff021916908373ffffffffffffffffffffffffffffffffffffffff160217905550818373ffffffffffffffffffffffffffffffffffffffff168273ffffffffffffffffffffffffffffffffffffffff167f8c5be1e5ebec7d5bd14f71427d1e84f3dd0314c0f7b2291e5b200ac8c7c3b92560405160405180910390a4505050565b6000600780549050905090565b600a5481565b60006001601d60006101000a81548160ff02191690831515021790551515610c7e57600080fd5b610cbf6040805190810160405280600681526020017f72616e646f6d0000000000000000000000000000000000000000000000000000815250601354611cfe565b34111515610d5b576040517f08c379a00000000000000000000000000000000000000000000000000000000081526004018080602001828103825260308152602001807f416d6f756e74206f6620455448206e6f7420737566666963656e7420746f207281526020017f6573746172742074686520636c6f636b0000000000000000000000000000000081525060400191505060405180910390fd5b610d6b60145460206013546120db565b905080601281600019169055506000601d60006101000a81548160ff02191690831515021790555050565b610da0338261270d565b1515610dab57600080fd5b600073ffffffffffffffffffffffffffffffffffffffff168273ffffffffffffffffffffffffffffffffffffffff1614151515610de757600080fd5b610df183826127a2565b610dfb83826128a5565b610e058282612a61565b808273ffffffffffffffffffffffffffffffffffffffff168473ffffffffffffffffffffffffffffffffffffffff167fddf252ad1be2c89b69c2b068fc378daa952ba7f163c4a11628f55a4df523b3ef60405160405180910390a4505050565b6000600954601b54601960008581526020019081526020016000205401119050919050565b60095481565b610ecf828260006040519080825280601f01601f191660200182016040528015610ec95781602001602082028038833980820191505090505b50610f4a565b5050565b6000610ede83611535565b82101515610eeb57600080fd5b600560008473ffffffffffffffffffffffffffffffffffffffff1673ffffffffffffffffffffffffffffffffffffffff16815260200190815260200160002082815481101515610f3757fe5b9060005260206000200154905092915050565b828282610f55612b38565b73ffffffffffffffffffffffffffffffffffffffff163373ffffffffffffffffffffffffffffffffffffffff16141515610ff7576040517f08c379a00000000000000000000000000000000000000000000000000000000081526004018080602001828103825260188152602001807f496e76616c69642063616c6c6261636b2061646472657373000000000000000081525060200191505060405180910390fd5b826000191660125460001916141515611078576040517f08c379a00000000000000000000000000000000000000000000000000000000081526004018080602001828103825260188152602001807f496e76616c69642063616c6c6261636b2071756572794964000000000000000081525060200191505060405180910390fd5b7f4c000000000000000000000000000000000000000000000000000000000000008160008151811015156110a857fe5b9060200101517f010000000000000000000000000000000000000000000000000000000000000090047f0100000000000000000000000000000000000000000000000000000000000000027effffffffffffffffffffffffffffffffffffffffffffffffffffffffffffff19161480156111bc57507f500000000000000000000000000000000000000000000000000000000000000081600181518110151561114d57fe5b9060200101517f010000000000000000000000000000000000000000000000000000000000000090047f0100000000000000000000000000000000000000000000000000000000000000027effffffffffffffffffffffffffffffffffffffffffffffffffffffffffffff1916145b8015611265575060017f0100000000000000000000000000000000000000000000000000000000000000028160028151811015156111f657fe5b9060200101517f010000000000000000000000000000000000000000000000000000000000000090047f0100000000000000000000000000000000000000000000000000000000000000027effffffffffffffffffffffffffffffffffffffffffffffffffffffffffffff1916145b15156112d9576040517f08c379a000000000000000000000000000000000000000000000000000000000815260040180806020018281038252601d8152602001807f496e76616c69642063616c6c6261636b2070726f6f662068656164657200000081525060200191505060405180910390fd5b6112ec8184846112e7612e9a565b612f3c565b1515611360576040517f08c379a00000000000000000000000000000000000000000000000000000000081526004018080602001828103825260168152602001807f496e76616c69642063616c6c6261636b2070726f6f660000000000000000000081525060200191505060405180910390fd5b61136985613870565b611371613926565b505050505050565b611395838383602060405190810160405280600081525061189a565b505050565b60008073ffffffffffffffffffffffffffffffffffffffff168273ffffffffffffffffffffffffffffffffffffffff1614151515611440576040517f08c379a00000000000000000000000000000000000000000000000000000000081526004018080602001828103825260178152602001807f496e76616c6964206163636f756e74206164647265737300000000000000000081525060200191505060405180910390fd5b61144983611a22565b73ffffffffffffffffffffffffffffffffffffffff168273ffffffffffffffffffffffffffffffffffffffff1614905092915050565b6000611489610c44565b8210151561149657600080fd5b6007828154811015156114a557fe5b90600052602060002001549050919050565b6000806001600084815260200190815260200160002060009054906101000a900473ffffffffffffffffffffffffffffffffffffffff169050600073ffffffffffffffffffffffffffffffffffffffff168173ffffffffffffffffffffffffffffffffffffffff161415151561152c57600080fd5b80915050919050565b60008073ffffffffffffffffffffffffffffffffffffffff168273ffffffffffffffffffffffffffffffffffffffff161415151561157257600080fd5b600360008373ffffffffffffffffffffffffffffffffffffffff1673ffffffffffffffffffffffffffffffffffffffff168152602001908152602001600020549050919050565b6000801515600c60003373ffffffffffffffffffffffffffffffffffffffff1673ffffffffffffffffffffffffffffffffffffffff16815260200190815260200160002060009054906101000a900460ff16151514151561161957600080fd5b600b6060604051908101604052803373ffffffffffffffffffffffffffffffffffffffff168152602001600081526020016009548152509080600181540180825580915050906001820390600052602060002090600302016000909192909190915060008201518160000160006101000a81548173ffffffffffffffffffffffffffffffffffffffff021916908373ffffffffffffffffffffffffffffffffffffffff1602179055506020820151816001015560408201518160020155505090506116e43382613c0c565b6001600c60003373ffffffffffffffffffffffffffffffffffffffff1673ffffffffffffffffffffffffffffffffffffffff16815260200190815260200160002060006101000a81548160ff02191690831515021790555050565b6000806018600084815260200190815260200160002054119050919050565b3373ffffffffffffffffffffffffffffffffffffffff168273ffffffffffffffffffffffffffffffffffffffff161415151561179957600080fd5b80600460003373ffffffffffffffffffffffffffffffffffffffff1673ffffffffffffffffffffffffffffffffffffffff16815260200190815260200160002060008473ffffffffffffffffffffffffffffffffffffffff1673ffffffffffffffffffffffffffffffffffffffff16815260200190815260200160002060006101000a81548160ff0219169083151502179055508173ffffffffffffffffffffffffffffffffffffffff163373ffffffffffffffffffffffffffffffffffffffff167f17307eab39ab6107e8899845ad3d59bd9653f200f220920489ca2b5937696c3183604051808215151515815260200191505060405180910390a35050565b6118a5848484610d96565b6118b184848484613c63565b15156118bc57600080fd5b50505050565b816118cd813361139a565b15156118d857600080fd5b826118e281610e65565b1515611956576040517f08c379a00000000000000000000000000000000000000000000000000000000081526004018080602001828103825260168152602001807f496e76616c6964206964656e7469747920696e6465780000000000000000000081525060200191505060405180910390fd5b6000600b8481548110151561196757fe5b90600052602060002090600302016001015414156119f457600954600b8481548110151561199157fe5b90600052602060002090600302016001018190555060178054905060186000858152602001908152602001600020819055506017839080600181540180825580915050906001820390600052602060002001600090919290919091505550611a1c565b600954600b84815481101515611a0657fe5b9060005260206000209060030201600101819055505b50505050565b6000600b82815481101515611a3357fe5b906000526020600020906003020160000160009054906101000a900473ffffffffffffffffffffffffffffffffffffffff169050919050565b6000600460008473ffffffffffffffffffffffffffffffffffffffff1673ffffffffffffffffffffffffffffffffffffffff16815260200190815260200160002060008373ffffffffffffffffffffffffffffffffffffffff1673ffffffffffffffffffffffffffffffffffffffff16815260200190815260200160002060009054906101000a900460ff16905092915050565b60008060008360001515611b1382611c2f565b1515141515611b2157600080fd5b60186000868152602001908152602001600020549350611b506001601780549050613e8590919063ffffffff16565b9250601783815481101515611b6157fe5b9060005260206000200154915081601785815481101515611b7e57fe5b90600052602060002001819055506000601784815481101515611b9d57fe5b90600052602060002001819055506017805480919060019003611bc091906163eb565b50600060186000878152602001908152602001600020819055508360186000848152602001908152602001600020819055505050505050565b80611c04813361139a565b1515611c0f57600080fd5b611c21611c1b836114b7565b836128a5565b611c2b3383612a61565b5050565b600080600b83815481101515611c4157fe5b906000526020600020906003020160010154118015611c855750600b82815481101515611c6a57fe5b906000526020600020906003020160010154600a5460095401115b9050919050565b6000806001600084815260200190815260200160002060009054906101000a900473ffffffffffffffffffffffffffffffffffffffff169050600073ffffffffffffffffffffffffffffffffffffffff168173ffffffffffffffffffffffffffffffffffffffff161415915050919050565b600080600d60009054906101000a900473ffffffffffffffffffffffffffffffffffffffff1673ffffffffffffffffffffffffffffffffffffffff161480611d7057506000611d6e600d60009054906101000a900473ffffffffffffffffffffffffffffffffffffffff16613ea6565b145b15611d8157611d7f6000613eb1565b505b600d60009054906101000a900473ffffffffffffffffffffffffffffffffffffffff1673ffffffffffffffffffffffffffffffffffffffff166338cc48316040518163ffffffff167c0100000000000000000000000000000000000000000000000000000000028152600401602060405180830381600087803b158015611e0757600080fd5b505af1158015611e1b573d6000803e3d6000fd5b505050506040513d6020811015611e3157600080fd5b810190808051906020019092919050505073ffffffffffffffffffffffffffffffffffffffff16600e60009054906101000a900473ffffffffffffffffffffffffffffffffffffffff1673ffffffffffffffffffffffffffffffffffffffff16141515611f9a57600d60009054906101000a900473ffffffffffffffffffffffffffffffffffffffff1673ffffffffffffffffffffffffffffffffffffffff166338cc48316040518163ffffffff167c0100000000000000000000000000000000000000000000000000000000028152600401602060405180830381600087803b158015611f1e57600080fd5b505af1158015611f32573d6000803e3d6000fd5b505050506040513d6020811015611f4857600080fd5b8101908080519060200190929190505050600e60006101000a81548173ffffffffffffffffffffffffffffffffffffffff021916908373ffffffffffffffffffffffffffffffffffffffff1602179055505b600e60009054906101000a900473ffffffffffffffffffffffffffffffffffffffff1673ffffffffffffffffffffffffffffffffffffffff16632ef3accc84846040518363ffffffff167c01000000000000000000000000000000000000000000000000000000000281526004018080602001838152602001828103825284818151815260200191508051906020019080838360005b8381101561204b578082015181840152602081019050612030565b50505050905090810190601f1680156120785780820380516001836020036101000a031916815260200191505b509350505050602060405180830381600087803b15801561209857600080fd5b505af11580156120ac573d6000803e3d6000fd5b505050506040513d60208110156120c257600080fd5b8101908080519060200190929190505050905092915050565b6000606080606060006060806120ef616417565b6000606060008c118015612104575060208c11155b151561210f57600080fd5b600a8d029c5060016040519080825280601f01601f1916602001820160405280156121495781602001602082028038833980820191505090505b5098508b7f01000000000000000000000000000000000000000000000000000000000000000289600081518110151561217e57fe5b9060200101907effffffffffffffffffffffffffffffffffffffffffffffffffffffffffffff1916908160001a90535060206040519080825280601f01601f1916602001820160405280156121e25781602001602082028038833980820191505090505b50975060206040519080825280601f01601f1916602001820160405280156122195781602001602082028038833980820191505090505b509650612224613ec2565b95506020885242411860014303401860208901526020875285602088015260206040519080825280601f01601f1916602001820160405280156122765781602001602082028038833980820191505090505b5094508c602086015260086040519080825280601f01601f1916602001820160405280156122b35781602001602082028038833980820191505090505b5093506122c68560186008876000614224565b506080604051908101604052808981526020018a815260200188815260200186815250925061232b6040805190810160405280600681526020017f72616e646f6d0000000000000000000000000000000000000000000000000000815250848d614284565b915060086040519080825280601f01601f1916602001820160405280156123615781602001602082028038833980820191505090505b50905060208401517f0100000000000000000000000000000000000000000000000000000000000000810460278301537e01000000000000000000000000000000000000000000000000000000000000810460268301537d010000000000000000000000000000000000000000000000000000000000810460258301537c0100000000000000000000000000000000000000000000000000000000810460248301537b01000000000000000000000000000000000000000000000000000000810460238301537a0100000000000000000000000000000000000000000000000000008104602283015379010000000000000000000000000000000000000000000000000081046021830153780100000000000000000000000000000000000000000000000081046020830153506126fa82828560016004811015156124a257fe5b602002015160028760006004811015156124b857fe5b60200201516040518082805190602001908083835b6020831015156124f257805182526020820191506020810190506020830392506124cd565b6001836020036101000a0380198251168184511680821785525050505050509050019150506020604051808303816000865af1158015612536573d6000803e3d6000fd5b5050506040513d602081101561254b57600080fd5b810190808051906020019092919050505087600260048110151561256b57fe5b60200201516040516020018085805190602001908083835b6020831015156125a85780518252602082019150602081019050602083039250612583565b6001836020036101000a03801982511681845116808217855250505050505090500184805190602001908083835b6020831015156125fb57805182526020820191506020810190506020830392506125d6565b6001836020036101000a038019825116818451168082178552505050505050905001836000191660001916815260200182805190602001908083835b60208310151561265c5780518252602082019150602081019050602083039250612637565b6001836020036101000a0380198251168184511680821785525050505050509050019450505050506040516020818303038152906040526040518082805190602001908083835b6020831015156126c857805182526020820191506020810190506020830392506126a3565b6001836020036101000a0380198251168184511680821785525050505050509050019150506040518091039020614630565b8199505050505050505050509392505050565b600080612719836114b7565b90508073ffffffffffffffffffffffffffffffffffffffff168473ffffffffffffffffffffffffffffffffffffffff16148061278857508373ffffffffffffffffffffffffffffffffffffffff1661277084610aae565b73ffffffffffffffffffffffffffffffffffffffff16145b8061279957506127988185611a6c565b5b91505092915050565b8173ffffffffffffffffffffffffffffffffffffffff166127c2826114b7565b73ffffffffffffffffffffffffffffffffffffffff161415156127e457600080fd5b600073ffffffffffffffffffffffffffffffffffffffff166002600083815260200190815260200160002060009054906101000a900473ffffffffffffffffffffffffffffffffffffffff1673ffffffffffffffffffffffffffffffffffffffff161415156128a15760006002600083815260200190815260200160002060006101000a81548173ffffffffffffffffffffffffffffffffffffffff021916908373ffffffffffffffffffffffffffffffffffffffff1602179055505b5050565b60008060006128b48585614658565b600660008581526020019081526020016000205492506129206001600560008873ffffffffffffffffffffffffffffffffffffffff1673ffffffffffffffffffffffffffffffffffffffff16815260200190815260200160002080549050613e8590919063ffffffff16565b9150600560008673ffffffffffffffffffffffffffffffffffffffff1673ffffffffffffffffffffffffffffffffffffffff1681526020019081526020016000208281548110151561296e57fe5b9060005260206000200154905080600560008773ffffffffffffffffffffffffffffffffffffffff1673ffffffffffffffffffffffffffffffffffffffff168152602001908152602001600020848154811015156129c857fe5b9060005260206000200181905550600560008673ffffffffffffffffffffffffffffffffffffffff1673ffffffffffffffffffffffffffffffffffffffff168152602001908152602001600020805480919060019003612a2891906163eb565b50600060066000868152602001908152602001600020819055508260066000838152602001908152602001600020819055505050505050565b6000612a6d8383614787565b600560008473ffffffffffffffffffffffffffffffffffffffff1673ffffffffffffffffffffffffffffffffffffffff168152602001908152602001600020805490509050600560008473ffffffffffffffffffffffffffffffffffffffff1673ffffffffffffffffffffffffffffffffffffffff168152602001908152602001600020829080600181540180825580915050906001820390600052602060002001600090919290919091505550806006600084815260200190815260200160002081905550505050565b600080600d60009054906101000a900473ffffffffffffffffffffffffffffffffffffffff1673ffffffffffffffffffffffffffffffffffffffff161480612baa57506000612ba8600d60009054906101000a900473ffffffffffffffffffffffffffffffffffffffff16613ea6565b145b15612bbb57612bb96000613eb1565b505b600d60009054906101000a900473ffffffffffffffffffffffffffffffffffffffff1673ffffffffffffffffffffffffffffffffffffffff166338cc48316040518163ffffffff167c0100000000000000000000000000000000000000000000000000000000028152600401602060405180830381600087803b158015612c4157600080fd5b505af1158015612c55573d6000803e3d6000fd5b505050506040513d6020811015612c6b57600080fd5b810190808051906020019092919050505073ffffffffffffffffffffffffffffffffffffffff16600e60009054906101000a900473ffffffffffffffffffffffffffffffffffffffff1673ffffffffffffffffffffffffffffffffffffffff16141515612dd457600d60009054906101000a900473ffffffffffffffffffffffffffffffffffffffff1673ffffffffffffffffffffffffffffffffffffffff166338cc48316040518163ffffffff167c0100000000000000000000000000000000000000000000000000000000028152600401602060405180830381600087803b158015612d5857600080fd5b505af1158015612d6c573d6000803e3d6000fd5b505050506040513d6020811015612d8257600080fd5b8101908080519060200190929190505050600e60006101000a81548173ffffffffffffffffffffffffffffffffffffffff021916908373ffffffffffffffffffffffffffffffffffffffff1602179055505b600e60009054906101000a900473ffffffffffffffffffffffffffffffffffffffff1673ffffffffffffffffffffffffffffffffffffffff1663c281d19e6040518163ffffffff167c0100000000000000000000000000000000000000000000000000000000028152600401602060405180830381600087803b158015612e5a57600080fd5b505af1158015612e6e573d6000803e3d6000fd5b505050506040513d6020811015612e8457600080fd5b8101908080519060200190929190505050905090565b6060600f8054600181600116156101000203166002900480601f016020809104026020016040519081016040528092919081815260200182805460018160011615610100020316600290048015612f325780601f10612f0757610100808354040283529160200191612f32565b820191906000526020600020905b815481529060010190602001808311612f1557829003601f168201915b5050505050905090565b6000806060806060806000806060602060028e6045815181101515612f5d57fe5b9060200101517f010000000000000000000000000000000000000000000000000000000000000090047f0100000000000000000000000000000000000000000000000000000000000000027f010000000000000000000000000000000000000000000000000000000000000090040160440101975060206040519080825280601f01601f1916602001820160405280156130065781602001602082028038833980820191505090505b5096506130188d8960208a6000614224565b5060028a8d6040516020018083805190602001908083835b6020831015156130555780518252602082019150602081019050602083039250613030565b6001836020036101000a0380198251168184511680821785525050505050509050018260001916600019168152602001925050506040516020818303038152906040526040518082805190602001908083835b6020831015156130cd57805182526020820191506020810190506020830392506130a8565b6001836020036101000a0380198251168184511680821785525050505050509050019150506020604051808303816000865af1158015613111573d6000803e3d6000fd5b5050506040513d602081101561312657600080fd5b81019080805190602001909291905050506040516020018082600019166000191681526020019150506040516020818303038152906040526040518082805190602001908083835b602083101515613193578051825260208201915060208101905060208303925061316e565b6001836020036101000a038019825116818451168082178552505050505050905001915050604051809103902060001916876040518082805190602001908083835b6020831015156131fa57805182526020820191506020810190506020830392506131d5565b6001836020036101000a03801982511681845116808217855250505050505090500191505060405180910390206000191614151561323b5760009850613860565b60028d600160498b010181518110151561325157fe5b9060200101517f010000000000000000000000000000000000000000000000000000000000000090047f0100000000000000000000000000000000000000000000000000000000000000027f01000000000000000000000000000000000000000000000000000000000000009004016040519080825280601f01601f1916602001820160405280156132f25781602001602082028038833980820191505090505b5095506133078d60498a018851896000614224565b506134356002876040518082805190602001908083835b602083101515613343578051825260208201915060208101905060208303925061331e565b6001836020036101000a0380198251168184511680821785525050505050509050019150506020604051808303816000865af1158015613387573d6000803e3d6000fd5b5050506040513d602081101561339c57600080fd5b81019080805190602001909291905050508c8f600860208d01018151811015156133c257fe5b9060200101517f010000000000000000000000000000000000000000000000000000000000000090047f0100000000000000000000000000000000000000000000000000000000000000027f010000000000000000000000000000000000000000000000000000000000000090046148e1565b15156134445760009850613860565b60296040519080825280601f01601f1916602001820160405280156134785781602001602082028038833980820191505090505b50945061348d8d60208a016029886000614224565b50604080519080825280601f01601f1916602001820160405280156134c15781602001602082028038833980820191505090505b50935060418651602960208b0101010192506134e58d604085036040876000614224565b506002846040518082805190602001908083835b60208310151561351e57805182526020820191506020810190506020830392506134f9565b6001836020036101000a0380198251168184511680821785525050505050509050019150506020604051808303816000865af1158015613562573d6000803e3d6000fd5b5050506040513d602081101561357757600080fd5b8101908080519060200190929190505050915084826040516020018083805190602001908083835b6020831015156135c4578051825260208201915060208101905060208303925061359f565b6001836020036101000a0380198251168184511680821785525050505050509050018260001916600019168152602001925050506040516020818303038152906040526040518082805190602001908083835b60208310151561363c5780518252602082019150602081019050602083039250613617565b6001836020036101000a038019825116818451168082178552505050505050905001915050604051809103902060001916601060008e60001916600019168152602001908152602001600020546000191614156136b757601060008d60001916600019168152602001908152602001600020600090556136c0565b60009850613860565b60496040519080825280601f01601f1916602001820160405280156136f45781602001602082028038833980820191505090505b5090506137068d896049846000614224565b506137b36002826040518082805190602001908083835b602083101515613742578051825260208201915060208101905060208303925061371d565b6001836020036101000a0380198251168184511680821785525050505050509050019150506020604051808303816000865af1158015613786573d6000803e3d6000fd5b5050506040513d602081101561379b57600080fd5b810190808051906020019092919050505087866149f9565b15156137c25760009850613860565b6000151560116000846000191660001916815260200190815260200160002060009054906101000a900460ff1615151415613834576138018d84614d26565b60116000846000191660001916815260200190815260200160002060006101000a81548160ff0219169083151502179055505b60116000836000191660001916815260200190815260200160002060009054906101000a900460ff1698505b5050505050505050949350505050565b6000600160095401600981905550601a54601c541115613922576138938261528c565b905060008111156139215760095460196000838152602001908152602001600020819055507ffee95ecae0c8f7f0743ec0ad254c78ab75e5ecca9f1ddcd9f11f9a98124b96bc6040518080602001828103825260148152602001807f4e65772076616c696461746f72207069636b656400000000000000000000000081525060200191505060405180910390a15b5b5050565b60003073ffffffffffffffffffffffffffffffffffffffff16316139816040805190810160405280600681526020017f72616e646f6d0000000000000000000000000000000000000000000000000000815250601354611cfe565b1115613a5b577fc35a0ec6603ff0b5966d7ca053a5f0984a70aad58a9a0ecb1349308815a4151a60405180806020018281038252604b8152602001807f4f7261636c697a6520717565727920776173204e4f542073656e742c20706c6581526020017f6173652061646420736f6d652045544820746f20636f76657220666f7220746881526020017f652071756572792066656500000000000000000000000000000000000000000081525060600191505060405180910390a16001601d60006101000a81548160ff021916908315150217905550613c09565b3073ffffffffffffffffffffffffffffffffffffffff1631601660009054906101000a900460ff1660ff16613ac76040805190810160405280600681526020017f72616e646f6d0000000000000000000000000000000000000000000000000000815250601354611cfe565b021115613b5d577f97b21bddf8c68708d1a294c8494268bdc71d9f780af587fbc0855487eda0faa16040518080602001828103825260338152602001807f436f6e736964657220746f2061646420736f6d652045544820746f20636f766581526020017f7220666f7220746865207175657279206665650000000000000000000000000081525060400191505060405180910390a15b7ffee95ecae0c8f7f0743ec0ad254c78ab75e5ecca9f1ddcd9f11f9a98124b96bc6040518080602001828103825260358152602001807f4f7261636c697a65207175657279207761732073656e742c207374616e64696e81526020017f6720627920666f722074686520616e737765722e2e000000000000000000000081525060400191505060405180910390a1613bfb60145460206013546120db565b905080601281600019169055505b50565b613c1682826153d7565b600780549050600860008381526020019081526020016000208190555060078190806001815401808255809150509060018203906000526020600020016000909192909190915055505050565b600080613c858573ffffffffffffffffffffffffffffffffffffffff1661547d565b1515613c945760019150613e7c565b8473ffffffffffffffffffffffffffffffffffffffff1663150b7a02338887876040518563ffffffff167c0100000000000000000000000000000000000000000000000000000000028152600401808573ffffffffffffffffffffffffffffffffffffffff1673ffffffffffffffffffffffffffffffffffffffff1681526020018473ffffffffffffffffffffffffffffffffffffffff1673ffffffffffffffffffffffffffffffffffffffff16815260200183815260200180602001828103825283818151815260200191508051906020019080838360005b83811015613d89578082015181840152602081019050613d6e565b50505050905090810190601f168015613db65780820380516001836020036101000a031916815260200191505b5095505050505050602060405180830381600087803b158015613dd857600080fd5b505af1158015613dec573d6000803e3d6000fd5b505050506040513d6020811015613e0257600080fd5b8101908080519060200190929190505050905063150b7a027c0100000000000000000000000000000000000000000000000000000000027bffffffffffffffffffffffffffffffffffffffffffffffffffffffff1916817bffffffffffffffffffffffffffffffffffffffffffffffffffffffff19161491505b50949350505050565b600080838311151515613e9757600080fd5b82840390508091505092915050565b6000813b9050919050565b6000613ebb615490565b9050919050565b600080600d60009054906101000a900473ffffffffffffffffffffffffffffffffffffffff1673ffffffffffffffffffffffffffffffffffffffff161480613f3457506000613f32600d60009054906101000a900473ffffffffffffffffffffffffffffffffffffffff16613ea6565b145b15613f4557613f436000613eb1565b505b600d60009054906101000a900473ffffffffffffffffffffffffffffffffffffffff1673ffffffffffffffffffffffffffffffffffffffff166338cc48316040518163ffffffff167c0100000000000000000000000000000000000000000000000000000000028152600401602060405180830381600087803b158015613fcb57600080fd5b505af1158015613fdf573d6000803e3d6000fd5b505050506040513d6020811015613ff557600080fd5b810190808051906020019092919050505073ffffffffffffffffffffffffffffffffffffffff16600e60009054906101000a900473ffffffffffffffffffffffffffffffffffffffff1673ffffffffffffffffffffffffffffffffffffffff1614151561415e57600d60009054906101000a900473ffffffffffffffffffffffffffffffffffffffff1673ffffffffffffffffffffffffffffffffffffffff166338cc48316040518163ffffffff167c0100000000000000000000000000000000000000000000000000000000028152600401602060405180830381600087803b1580156140e257600080fd5b505af11580156140f6573d6000803e3d6000fd5b505050506040513d602081101561410c57600080fd5b8101908080519060200190929190505050600e60006101000a81548173ffffffffffffffffffffffffffffffffffffffff021916908373ffffffffffffffffffffffffffffffffffffffff1602179055505b600e60009054906101000a900473ffffffffffffffffffffffffffffffffffffffff1673ffffffffffffffffffffffffffffffffffffffff1663abaa5f3e6040518163ffffffff167c0100000000000000000000000000000000000000000000000000000000028152600401602060405180830381600087803b1580156141e457600080fd5b505af11580156141f8573d6000803e3d6000fd5b505050506040513d602081101561420e57600080fd5b8101908080519060200190929190505050905090565b6060600080600084870192508286511015151561424057600080fd5b8760200191508460200190505b868860200101821015614275578189015180828801525060208201915060208101905061424d565b85935050505095945050505050565b600060606000600d60009054906101000a900473ffffffffffffffffffffffffffffffffffffffff1673ffffffffffffffffffffffffffffffffffffffff1614806142f9575060006142f7600d60009054906101000a900473ffffffffffffffffffffffffffffffffffffffff16613ea6565b145b1561430a576143086000613eb1565b505b600d60009054906101000a900473ffffffffffffffffffffffffffffffffffffffff1673ffffffffffffffffffffffffffffffffffffffff166338cc48316040518163ffffffff167c0100000000000000000000000000000000000000000000000000000000028152600401602060405180830381600087803b15801561439057600080fd5b505af11580156143a4573d6000803e3d6000fd5b505050506040513d60208110156143ba57600080fd5b810190808051906020019092919050505073ffffffffffffffffffffffffffffffffffffffff16600e60009054906101000a900473ffffffffffffffffffffffffffffffffffffffff1673ffffffffffffffffffffffffffffffffffffffff1614151561452357600d60009054906101000a900473ffffffffffffffffffffffffffffffffffffffff1673ffffffffffffffffffffffffffffffffffffffff166338cc48316040518163ffffffff167c0100000000000000000000000000000000000000000000000000000000028152600401602060405180830381600087803b1580156144a757600080fd5b505af11580156144bb573d6000803e3d6000fd5b505050506040513d60208110156144d157600080fd5b8101908080519060200190929190505050600e60006101000a81548173ffffffffffffffffffffffffffffffffffffffff021916908373ffffffffffffffffffffffffffffffffffffffff1602179055505b600460405190808252806020026020018201604052801561455857816020015b60608152602001906001900390816145435790505b50905083600060048110151561456a57fe5b602002015181600081518110151561457e57fe5b9060200190602002018190525083600160048110151561459a57fe5b60200201518160018151811015156145ae57fe5b906020019060200201819052508360026004811015156145ca57fe5b60200201518160028151811015156145de57fe5b906020019060200201819052508360036004811015156145fa57fe5b602002015181600381518110151561460e57fe5b90602001906020020181905250614626858285615926565b9150509392505050565b8060106000846000191660001916815260200190815260200160002081600019169055505050565b8173ffffffffffffffffffffffffffffffffffffffff16614678826114b7565b73ffffffffffffffffffffffffffffffffffffffff1614151561469a57600080fd5b6146ed6001600360008573ffffffffffffffffffffffffffffffffffffffff1673ffffffffffffffffffffffffffffffffffffffff16815260200190815260200160002054613e8590919063ffffffff16565b600360008473ffffffffffffffffffffffffffffffffffffffff1673ffffffffffffffffffffffffffffffffffffffff1681526020019081526020016000208190555060006001600083815260200190815260200160002060006101000a81548173ffffffffffffffffffffffffffffffffffffffff021916908373ffffffffffffffffffffffffffffffffffffffff1602179055505050565b600073ffffffffffffffffffffffffffffffffffffffff166001600083815260200190815260200160002060009054906101000a900473ffffffffffffffffffffffffffffffffffffffff1673ffffffffffffffffffffffffffffffffffffffff161415156147f557600080fd5b816001600083815260200190815260200160002060006101000a81548173ffffffffffffffffffffffffffffffffffffffff021916908373ffffffffffffffffffffffffffffffffffffffff16021790555061489a6001600360008573ffffffffffffffffffffffffffffffffffffffff1673ffffffffffffffffffffffffffffffffffffffff16815260200190815260200160002054615ee890919063ffffffff16565b600360008473ffffffffffffffffffffffffffffffffffffffff1673ffffffffffffffffffffffffffffffffffffffff168152602001908152602001600020819055505050565b6000806000600191508385511415156148f957600080fd5b600090505b838110156149ed57848181518110151561491457fe5b9060200101517f010000000000000000000000000000000000000000000000000000000000000090047f0100000000000000000000000000000000000000000000000000000000000000027effffffffffffffffffffffffffffffffffffffffffffffffffffffffffffff1916868260208110151561498f57fe5b1a7f0100000000000000000000000000000000000000000000000000000000000000027effffffffffffffffffffffffffffffffffffffffffffffffffffffffffffff19161415156149e057600091505b80806001019150506148fe565b81925050509392505050565b600080600080600060606000606060206040519080825280601f01601f191660200182016040528015614a3b5781602001602082028038833980820191505090505b50925060208a6003815181101515614a4f57fe5b9060200101517f010000000000000000000000000000000000000000000000000000000000000090047f0100000000000000000000000000000000000000000000000000000000000000027f01000000000000000000000000000000000000000000000000000000000000009004036004019150614ad28a836020866000614224565b925060206040519080825280601f01601f191660200182016040528015614b085781602001602082028038833980820191505090505b509050602282019150614ba38a60208c60018603815181101515614b2857fe5b9060200101517f010000000000000000000000000000000000000000000000000000000000000090047f0100000000000000000000000000000000000000000000000000000000000000027f010000000000000000000000000000000000000000000000000000000000000090040384016020846000614224565b90506020830151945060208101519350614bc08b601b8787615f09565b80975081985050508573ffffffffffffffffffffffffffffffffffffffff16896040518082805190602001908083835b602083101515614c155780518252602082019150602081019050602083039250614bf0565b6001836020036101000a03801982511681845116808217855250505050505090500191505060405180910390206001900473ffffffffffffffffffffffffffffffffffffffff161415614c6b5760019750614d18565b614c788b601c8787615f09565b80975081985050508573ffffffffffffffffffffffffffffffffffffffff16896040518082805190602001908083835b602083101515614ccd5780518252602082019150602081019050602083039250614ca8565b6001836020036101000a03801982511681845116808217855250505050505090500191505060405180910390206001900473ffffffffffffffffffffffffffffffffffffffff161497505b505050505050509392505050565b600080606080606080606080606060028b60018c01815181101515614d4757fe5b9060200101517f010000000000000000000000000000000000000000000000000000000000000090047f0100000000000000000000000000000000000000000000000000000000000000027f01000000000000000000000000000000000000000000000000000000000000009004016040519080825280601f01601f191660200182016040528015614de85781602001602082028038833980820191505090505b509650614dfa8b8b89518a6000614224565b50604080519080825280601f01601f191660200182016040528015614e2e5781602001602082028038833980820191505090505b509550614e418b60046040896000614224565b5060626040519080825280601f01601f191660200182016040528015614e765781602001602082028038833980820191505090505b50945060017f010000000000000000000000000000000000000000000000000000000000000002856000815181101515614eac57fe5b9060200101907effffffffffffffffffffffffffffffffffffffffffffffffffffffffffffff1916908160001a905350614eee8b60418c036041886001614224565b506040805190810160405280602081526020017ffd94fa71bc0ba10d39d464d0d8f465efeef0a2764e3887fcc9df41ded20f505c8152509350614f378460006020886042614224565b50614fe46002866040518082805190602001908083835b602083101515614f735780518252602082019150602081019050602083039250614f4e565b6001836020036101000a0380198251168184511680821785525050505050509050019150506020604051808303816000865af1158015614fb7573d6000803e3d6000fd5b5050506040513d6020811015614fcc57600080fd5b810190808051906020019092919050505088886149f9565b9750600015158815151415614ffc576000985061527e565b606060405190810160405280604081526020017f7fb956469c5c9b89840d55b43537e66a98dd4811ea0a27224272c2e5622911e881526020017f537a2f8e86a46baec82864e98dd01e9ccc2f8bc5dfc9cbe5a91a290498dd96e4815250925060426040519080825280601f01601f19166020018201604052801561508f5781602001602082028038833980820191505090505b50915060fe7f0100000000000000000000000000000000000000000000000000000000000000028260008151811015156150c557fe5b9060200101907effffffffffffffffffffffffffffffffffffffffffffffffffffffffffffff1916908160001a9053506151058b60036041856001614224565b5060028b604581518110151561511757fe5b9060200101517f010000000000000000000000000000000000000000000000000000000000000090047f0100000000000000000000000000000000000000000000000000000000000000027f01000000000000000000000000000000000000000000000000000000000000009004016040519080825280601f01601f1916602001820160405280156151b85781602001602082028038833980820191505090505b5090506151cb8b60448351846000614224565b506152786002836040518082805190602001908083835b60208310151561520757805182526020820191506020810190506020830392506151e2565b6001836020036101000a0380198251168184511680821785525050505050509050019150506020604051808303816000865af115801561524b573d6000803e3d6000fd5b5050506040513d602081101561526057600080fd5b810190808051906020019092919050505082856149f9565b97508798505b505050505050505092915050565b60008060008091505b60058260ff1610156153cb57817f0100000000000000000000000000000000000000000000000000000000000000028460008151811015156152d357fe5b9060200101907effffffffffffffffffffffffffffffffffffffffffffffffffffffffffffff1916908160001a905350601780549050846040518082805190602001908083835b60208310151561533f578051825260208201915060208101905060208303925061531a565b6001836020036101000a03801982511681845116808217855250505050505090500191505060405180910390206001900481151561537957fe5b06905061539e60178281548110151561538e57fe5b9060005260206000200154615f4d565b156153be57601860008281526020019081526020016000205492506153d0565b8180600101925050615295565b600092505b5050919050565b600073ffffffffffffffffffffffffffffffffffffffff168273ffffffffffffffffffffffffffffffffffffffff161415151561541357600080fd5b61541d8282612a61565b808273ffffffffffffffffffffffffffffffffffffffff16600073ffffffffffffffffffffffffffffffffffffffff167fddf252ad1be2c89b69c2b068fc378daa952ba7f163c4a11628f55a4df523b3ef60405160405180910390a45050565b600080823b905060008111915050919050565b6000806154b0731d3b2638a7cc9f2cb3d298a3da7a90b67e5506ed613ea6565b111561555257731d3b2638a7cc9f2cb3d298a3da7a90b67e5506ed600d60006101000a81548173ffffffffffffffffffffffffffffffffffffffff021916908373ffffffffffffffffffffffffffffffffffffffff1602179055506155496040805190810160405280600b81526020017f6574685f6d61696e6e6574000000000000000000000000000000000000000000815250615fa0565b60019050615923565b600061557173c03a2615d5efaf5f49f60b7bb6583eaec212fdf1613ea6565b11156156135773c03a2615d5efaf5f49f60b7bb6583eaec212fdf1600d60006101000a81548173ffffffffffffffffffffffffffffffffffffffff021916908373ffffffffffffffffffffffffffffffffffffffff16021790555061560a6040805190810160405280600c81526020017f6574685f726f707374656e330000000000000000000000000000000000000000815250615fa0565b60019050615923565b600061563273b7a07bcf2ba2f2703b24c0691b5278999c59ac7e613ea6565b11156156d45773b7a07bcf2ba2f2703b24c0691b5278999c59ac7e600d60006101000a81548173ffffffffffffffffffffffffffffffffffffffff021916908373ffffffffffffffffffffffffffffffffffffffff1602179055506156cb6040805190810160405280600981526020017f6574685f6b6f76616e0000000000000000000000000000000000000000000000815250615fa0565b60019050615923565b60006156f373146500cfd35b22e4a392fe0adc06de1a1368ed48613ea6565b11156157955773146500cfd35b22e4a392fe0adc06de1a1368ed48600d60006101000a81548173ffffffffffffffffffffffffffffffffffffffff021916908373ffffffffffffffffffffffffffffffffffffffff16021790555061578c6040805190810160405280600b81526020017f6574685f72696e6b656279000000000000000000000000000000000000000000815250615fa0565b60019050615923565b60006157b4736f485c8bf6fc43ea212e93bbf8ce046c7f1cb475613ea6565b111561581857736f485c8bf6fc43ea212e93bbf8ce046c7f1cb475600d60006101000a81548173ffffffffffffffffffffffffffffffffffffffff021916908373ffffffffffffffffffffffffffffffffffffffff16021790555060019050615923565b60006158377320e12a1f859b3feae5fb2a0a32c18f5a65555bbf613ea6565b111561589b577320e12a1f859b3feae5fb2a0a32c18f5a65555bbf600d60006101000a81548173ffffffffffffffffffffffffffffffffffffffff021916908373ffffffffffffffffffffffffffffffffffffffff16021790555060019050615923565b60006158ba7351efaf4c8b3c9afbd5ab9f4bbc82784ab6ef8faa613ea6565b111561591e577351efaf4c8b3c9afbd5ab9f4bbc82784ab6ef8faa600d60006101000a81548173ffffffffffffffffffffffffffffffffffffffff021916908373ffffffffffffffffffffffffffffffffffffffff16021790555060019050615923565b600090505b90565b60008060606000600d60009054906101000a900473ffffffffffffffffffffffffffffffffffffffff1673ffffffffffffffffffffffffffffffffffffffff16148061599c5750600061599a600d60009054906101000a900473ffffffffffffffffffffffffffffffffffffffff16613ea6565b145b156159ad576159ab6000613eb1565b505b600d60009054906101000a900473ffffffffffffffffffffffffffffffffffffffff1673ffffffffffffffffffffffffffffffffffffffff166338cc48316040518163ffffffff167c0100000000000000000000000000000000000000000000000000000000028152600401602060405180830381600087803b158015615a3357600080fd5b505af1158015615a47573d6000803e3d6000fd5b505050506040513d6020811015615a5d57600080fd5b810190808051906020019092919050505073ffffffffffffffffffffffffffffffffffffffff16600e60009054906101000a900473ffffffffffffffffffffffffffffffffffffffff1673ffffffffffffffffffffffffffffffffffffffff16141515615bc657600d60009054906101000a900473ffffffffffffffffffffffffffffffffffffffff1673ffffffffffffffffffffffffffffffffffffffff166338cc48316040518163ffffffff167c0100000000000000000000000000000000000000000000000000000000028152600401602060405180830381600087803b158015615b4a57600080fd5b505af1158015615b5e573d6000803e3d6000fd5b505050506040513d6020811015615b7457600080fd5b8101908080519060200190929190505050600e60006101000a81548173ffffffffffffffffffffffffffffffffffffffff021916908373ffffffffffffffffffffffffffffffffffffffff1602179055505b600e60009054906101000a900473ffffffffffffffffffffffffffffffffffffffff1673ffffffffffffffffffffffffffffffffffffffff16632ef3accc87866040518363ffffffff167c01000000000000000000000000000000000000000000000000000000000281526004018080602001838152602001828103825284818151815260200191508051906020019080838360005b83811015615c77578082015181840152602081019050615c5c565b50505050905090810190601f168015615ca45780820380516001836020036101000a031916815260200191505b509350505050602060405180830381600087803b158015615cc457600080fd5b505af1158015615cd8573d6000803e3d6000fd5b505050506040513d6020811015615cee57600080fd5b81019080805190602001909291905050509150833a02670de0b6b3a764000001821115615d215760006001029250615edf565b615d2a85615fba565b9050600e60009054906101000a900473ffffffffffffffffffffffffffffffffffffffff1673ffffffffffffffffffffffffffffffffffffffff1663c55c1cb68360008985896040518663ffffffff167c0100000000000000000000000000000000000000000000000000000000028152600401808581526020018060200180602001848152602001838103835286818151815260200191508051906020019080838360005b83811015615deb578082015181840152602081019050615dd0565b50505050905090810190601f168015615e185780820380516001836020036101000a031916815260200191505b50838103825285818151815260200191508051906020019080838360005b83811015615e51578082015181840152602081019050615e36565b50505050905090810190601f168015615e7e5780820380516001836020036101000a031916815260200191505b5096505050505050506020604051808303818588803b158015615ea057600080fd5b505af1158015615eb4573d6000803e3d6000fd5b50505050506040513d6020811015615ecb57600080fd5b810190808051906020019092919050505092505b50509392505050565b6000808284019050838110151515615eff57600080fd5b8091505092915050565b60008060008060405188815287602082015286604082015285606082015260208160808360006001610bb8f192508051915050818193509350505094509492505050565b60008160011515615f5d82611c2f565b1515141515615f6b57600080fd5b600a54600b84815481101515615f7d57fe5b90600052602060002090600302016001015401601b546009540110915050919050565b80600f9080519060200190615fb692919061643f565b5050565b6060615fc46164bf565b6000615fce61603f565b615fda8261040061604b565b615fe38261609b565b600090505b83518110156160285761601b848281518110151561600257fe5b90602001906020020151836160a990919063ffffffff16565b8080600101915050615fe8565b616031826160ce565b816000015192505050919050565b60405180590338823950565b6000819050600060208281151561605e57fe5b0614151561607b5760208181151561607257fe5b06602003810190505b808360200181815250506040518084526000815281810160405250505050565b6160a68160046160dc565b50565b6160b68260028351616100565b6160c9818361625990919063ffffffff16565b505050565b6160d98160076160dc565b50565b6160fc601f60058360ff169060020a02178361630590919063ffffffff16565b5050565b6017811115156161315761612c8160058460ff169060020a0260ff16178461630590919063ffffffff16565b616254565b60ff811115156161775761615b601860058460ff169060020a02178461630590919063ffffffff16565b616171816001856163459092919063ffffffff16565b50616253565b61ffff811115156161be576161a2601960058460ff169060020a02178461630590919063ffffffff16565b6161b8816002856163459092919063ffffffff16565b50616252565b63ffffffff81111515616207576161eb601a60058460ff169060020a02178461630590919063ffffffff16565b616201816004856163459092919063ffffffff16565b50616251565b67ffffffffffffffff8111151561625057616238601b60058460ff169060020a02178461630590919063ffffffff16565b61624e816008856163459092919063ffffffff16565b505b5b5b5b5b505050565b6162616164bf565b60008060008086602001518760000151518751011115616297576162968760026162908a602001518a516163ac565b026163c8565b5b8551915086518051602081830101955087518101825260208801945050505b6020821015156162db57825184526020840193506020830192506020820391506162b6565b6001826020036101000a039050801983511681855116818117865250508694505050505092915050565b8160200151600183600001515101111561632b5761632a8260028460200151026163c8565b5b815180516020818301018381536001820183525050505050565b61634d6164bf565b600084602001518560000151518401111561637d5761637c8560026163768860200151876163ac565b026163c8565b5b6001836101000a0390508451805184818301018684198251161781528582018352505050849150509392505050565b6000818311156163be578290506163c2565b8190505b92915050565b6060826000015190506163db838361604b565b6163e58382616259565b50505050565b8154818355818111156164125781836000526020600020918201910161641191906164d9565b5b505050565b6080604051908101604052806004905b60608152602001906001900390816164275790505090565b828054600181600116156101000203166002900490600052602060002090601f016020900481019282601f1061648057805160ff19168380011785556164ae565b828001600101855582156164ae579182015b828111156164ad578251825591602001919060010190616492565b5b5090506164bb91906164d9565b5090565b604080519081016040528060608152602001600081525090565b6164fb91905b808211156164f75760008160009055506001016164df565b5090565b905600a165627a7a72305820459357ec4377078e18014a0873ba0e7381d08f598a9912dd8514fbcfb026f7e90029",
  "source": "pragma solidity ^0.4.25;\n\nimport \"./lib/OraclizeAPI.sol\";\nimport './IdentitySystem.sol';\n\ncontract SelfSovereignIdentitySystem is IdentitySystem, usingOraclize {\n  using SafeMath for uint256;\n\n  bytes32 private pendingQuery;\n  uint256 private callbackGasPrice = 200000;\n  uint256 private delay = 1 days;\n  uint256 private randomBytes = 7;\n  uint8 private daysBeforeWarn = 10;\n\n  event NewCitizen(uint256 identityIndex);\n  event ExpiredCitizen(uint256 identityIndex);\n\n  event NewValidator(uint256 identityIndex);\n  event ExpiredValidator(uint256 identityIndex);\n\n  uint256[] allCitizen;\n  mapping(uint256 => uint256) allCitizenIndex;\n\n  mapping (uint256 => uint256) lastValidatorMandateDay;\n\n  uint256 validatorCount;\n\n  uint256 validityPeriodForValidator = 30 * 3;\n\n  uint256 validatorCountGoal;\n\n  bool stopped;\n\n  constructor() public payable\n  {\n    require(msg.value > oraclize_getPrice(\"random\", callbackGasPrice), \"Amount of ETH not sufficent to start the clock\");\n    oraclize_setProof(proofType_Ledger); // sets the Ledger authenticity proof\n    bytes32 newQueryId = oraclize_newRandomDSQuery(delay, 32, callbackGasPrice);\n    dayCount = 1;\n    pendingQuery = newQueryId;\n    stopped = false;\n  }\n\n  modifier verifyCallback(bytes32 _queryId, string _result, bytes _proof)\n  {\n    require(msg.sender == oraclize_cbAddress(), \"Invalid callback address\");\n    require(pendingQuery == _queryId, \"Invalid callback queryId\");\n    require((_proof[0] == \"L\") && (_proof[1] == \"P\") && (_proof[2] == 1), \"Invalid callback proof header\");\n    require(oraclize_randomDS_proofVerify__main(_proof, _queryId, bytes(_result), oraclize_getNetworkName()), \"Invalid callback proof\");\n    _;\n  }\n\n  modifier whenStopped() {\n    require(stopped = true);\n    _;\n  }\n\n  modifier onlyValidator(uint256 _identityIndex) {\n    require(isValidator(_identityIndex), \"Invalid identity index\");\n    _;\n  }\n\n  function _isAdmissible(uint256 _identityIndex) view internal\n    onlyValid(_identityIndex) returns (bool)\n  {\n      return dayCount + validityPeriodForValidator < identities[_identityIndex].lastValidationDay + validityPeriod;\n  }\n\n  function isCitizen(uint256 _identityIndex) view public returns (bool) {\n    return allCitizenIndex[_identityIndex] > 0;\n  }\n\n  function isValidator(uint256 _identityIndex) view public returns (bool) {\n    return lastValidatorMandateDay[_identityIndex] + validityPeriodForValidator > dayCount;\n  }\n\n  function validateCitizen(uint256 _validatorIndex, uint256 _identityIndex) public\n    onlySigner(_validatorIndex)\n    onlyValidator(_validatorIndex)\n  {\n    if (identities[_identityIndex].lastValidationDay == 0)\n    {\n      identities[_identityIndex].lastValidationDay = dayCount;\n      allCitizenIndex[_identityIndex] = allCitizen.length;\n      allCitizen.push(_identityIndex);\n    } else {\n      identities[_identityIndex].lastValidationDay = dayCount;\n    }\n  }\n\n  function removeCitizen(uint256 identityIndex) public\n    onlyNotValid(identityIndex)\n  {\n    // Reorg all citizen array\n    uint256 tokenIndex = allCitizenIndex[identityIndex];\n    uint256 lastTokenIndex = allCitizen.length.sub(1);\n    uint256 lastToken = allCitizen[lastTokenIndex];\n\n    allCitizen[tokenIndex] = lastToken;\n    allCitizen[lastTokenIndex] = 0;\n\n    allCitizen.length--;\n    allCitizenIndex[identityIndex] = 0;\n    allCitizenIndex[lastToken] = tokenIndex;\n  }\n\n  function _randomlyPickCitizen(bytes _randomSeed) view private returns(uint256){\n    for(uint8 i = 0 ; i < 5 ; i++)\n    {\n      _randomSeed[0]=bytes1(i);\n      uint256 pickedIndex = uint256(keccak256(_randomSeed)) % allCitizen.length;\n      if (_isAdmissible(allCitizen[pickedIndex]))\n        return allCitizenIndex[pickedIndex];\n    }\n    return 0;\n  }\n\n  function __callback(bytes32 _queryId, string _result, bytes _proof) public\n      verifyCallback(_queryId, _result, _proof)\n  {\n    _executeDailyProcess(bytes(_result));\n    _scheduleNextDailyProcess();\n  }\n\n  function _executeDailyProcess(bytes _randomSeed) private {\n    dayCount = dayCount + 1;\n    uint256 pickedIndex;\n    if (validatorCountGoal > validatorCount) {\n      pickedIndex = _randomlyPickCitizen(_randomSeed);\n      if(pickedIndex>0)\n      {\n        lastValidatorMandateDay[pickedIndex] = dayCount;\n        emit LogInfo(\"New validator picked\");\n      }\n    }\n  }\n\n  function _scheduleNextDailyProcess() private {\n    if (oraclize_getPrice(\"random\", callbackGasPrice) > address(this).balance) {\n      emit LogError(\"Oraclize query was NOT sent, please add some ETH to cover for the query fee\");\n      stopped = true;\n    } else {\n      if (oraclize_getPrice(\"random\", callbackGasPrice) * daysBeforeWarn > address(this).balance)\n        emit LogWarn(\"Consider to add some ETH to cover for the query fee\");\n      emit LogInfo(\"Oraclize query was sent, standing by for the answer..\");\n      bytes32 newQueryId = oraclize_newRandomDSQuery(delay, 32, callbackGasPrice);\n      pendingQuery = newQueryId;\n    }\n  }\n\n  function restart() public payable whenStopped()\n  {\n    require(msg.value > oraclize_getPrice(\"random\", callbackGasPrice), \"Amount of ETH not sufficent to restart the clock\");\n    bytes32 newQueryId = oraclize_newRandomDSQuery(delay, 32, callbackGasPrice);\n    pendingQuery = newQueryId;\n    stopped = false;\n  }\n\n}\n",
  "sourcePath": "/home/ysallami/Open-Institutions/contracts/contracts/SelfSovereignIdentitySystem.sol",
  "compiler": {
    "name": "solc",
    "version": "0.4.25+commit.59dbf8f1.Emscripten.clang"
  },
  "schemaVersion": "3.0.1",
  "updatedAt": "2019-01-05T14:05:43.044Z",
  "devdoc": {
    "methods": {
      "approve(address,uint256)": {
        "details": "Approves another address to transfer the given token ID The zero address indicates there is no approved address. There can only be one approved address per token at a given time. Can only be called by the token owner or an approved operator.",
        "params": {
          "to": "address to be approved for the given token ID",
          "tokenId": "uint256 ID of the token to be approved"
        }
      },
      "balanceOf(address)": {
        "details": "Gets the balance of the specified address",
        "params": {
          "owner": "address to query the balance of"
        },
        "return": "uint256 representing the amount owned by the passed address"
      },
      "getApproved(uint256)": {
        "details": "Gets the approved address for a token ID, or zero if no address set Reverts if the token ID does not exist.",
        "params": {
          "tokenId": "uint256 ID of the token to query the approval of"
        },
        "return": "address currently approved for the given token ID"
      },
      "isApprovedForAll(address,address)": {
        "details": "Tells whether an operator is approved by a given owner",
        "params": {
          "operator": "operator address which you want to query the approval of",
          "owner": "owner address which you want to query the approval of"
        },
        "return": "bool whether the given operator is approved by the given owner"
      },
      "ownerOf(uint256)": {
        "details": "Gets the owner of the specified token ID",
        "params": {
          "tokenId": "uint256 ID of the token to query the owner of"
        },
        "return": "owner address currently marked as the owner of the given token ID"
      },
      "safeTransferFrom(address,address,uint256)": {
        "details": "Safely transfers the ownership of a given token ID to another address If the target address is a contract, it must implement `onERC721Received`, which is called upon a safe transfer, and return the magic value `bytes4(keccak256(\"onERC721Received(address,address,uint256,bytes)\"))`; otherwise, the transfer is reverted.   * Requires the msg sender to be the owner, approved, or operator",
        "params": {
          "from": "current owner of the token",
          "to": "address to receive the ownership of the given token ID",
          "tokenId": "uint256 ID of the token to be transferred"
        }
      },
      "safeTransferFrom(address,address,uint256,bytes)": {
        "details": "Safely transfers the ownership of a given token ID to another address If the target address is a contract, it must implement `onERC721Received`, which is called upon a safe transfer, and return the magic value `bytes4(keccak256(\"onERC721Received(address,address,uint256,bytes)\"))`; otherwise, the transfer is reverted. Requires the msg sender to be the owner, approved, or operator",
        "params": {
          "_data": "bytes data to send along with a safe transfer check",
          "from": "current owner of the token",
          "to": "address to receive the ownership of the given token ID",
          "tokenId": "uint256 ID of the token to be transferred"
        }
      },
      "setApprovalForAll(address,bool)": {
        "details": "Sets or unsets the approval of a given operator An operator is allowed to transfer all tokens of the sender on their behalf",
        "params": {
          "approved": "representing the status of the approval to be set",
          "to": "operator address to set the approval"
        }
      },
      "supportsInterface(bytes4)": {
        "details": "implement supportsInterface(bytes4) using a lookup table"
      },
      "tokenByIndex(uint256)": {
        "details": "Gets the token ID at a given index of all the tokens in this contract Reverts if the index is greater or equal to the total number of tokens",
        "params": {
          "index": "uint256 representing the index to be accessed of the tokens list"
        },
        "return": "uint256 token ID at the given index of the tokens list"
      },
      "tokenOfOwnerByIndex(address,uint256)": {
        "details": "Gets the token ID at a given index of the tokens list of the requested owner",
        "params": {
          "index": "uint256 representing the index to be accessed of the requested tokens list",
          "owner": "address owning the tokens list to be accessed"
        },
        "return": "uint256 token ID at the given index of the tokens list owned by the requested address"
      },
      "totalSupply()": {
        "details": "Gets the total amount of tokens stored by the contract",
        "return": "uint256 representing the total amount of tokens"
      },
      "transferFrom(address,address,uint256)": {
        "details": "Transfers the ownership of a given token ID to another address Usage of this method is discouraged, use `safeTransferFrom` whenever possible Requires the msg sender to be the owner, approved, or operator",
        "params": {
          "from": "current owner of the token",
          "to": "address to receive the ownership of the given token ID",
          "tokenId": "uint256 ID of the token to be transferred"
        }
      }
    }
  },
  "userdoc": {
    "methods": {}
  }
}